:020000040800F2
:100000009004002045010008D1170008D50E000813
:10001000CD170008B3030008632B000800000000A0
:10002000000000000000000000000000391C000873
:10003000AD0400080000000085190008591E0008E2
:10004000752B00085F0100085F0100085F010008D0
:100050005F0100085F0100085F0100085F01000800
:100060005F0100085F0100085F0100085F010008F0
:100070005F0100085F0100085F0100085F010008E0
:100080005F0100085F0100085F0100085F010008D0
:100090005F0100085F0100085F0100085F010008C0
:1000A0005F010008BD1E00085F0100085F01000835
:1000B000D51E0008051F0008B11F00085F010008D9
:1000C0005F0100085F0100085F0100085F01000890
:1000D0005F010008E12800081D29000859290008CF
:1000E0005F0100085F0100085F0100085F01000870
:1000F0005F0100085F0100085F0100085F01000860
:100100005F0100085F010008E51F00085F010008AB
:100110009D270008D9270008192000085F01000862
:100120005F0100085F0100085F0100085F0100082F
:10013000DFF80CD000F020F800480047412F0008FD
:10014000900400200648804706480047FEE7FEE787
:10015000FEE7FEE7FEE7FEE7FEE7FEE7FEE7FEE777
:100160005D1E000831010008421C10F8011B002927
:10017000FBD1801A70470000064C074D06E0E0688E
:1001800040F0010394E8070098471034AC42F6D3DE
:10019000FFF7D2FF90530008B053000821B18268E6
:1001A00042F00102826003E0826822F00102826074
:1001B0007047000010B504461248844208D101215E
:1001C000401501F05BFC0021601501F057FC17E0C1
:1001D0000D48844208D10121001501F04FFC002197
:1001E000201501F04BFC0BE00848844208D10121A6
:1001F000C80301F043FC00214FF4004001F03EFC35
:1002000010BD00000024014000280140003C0140D6
:10021000014600208A6802F004020AB1012000E0D1
:1002200000207047014600208A6802F008020AB1E7
:10023000012000E00020704730B502460020002376
:1002400050680F4C20400D790C6844EA0524204387
:10025000506090680B4C2040D1E902542C434D79FA
:1002600044EA450420439060D06A20F470000C7C7E
:10027000641EE4B2234340EA0350D06230BD000064
:10028000FFFEF0FFFDF7F1FF816841F0080181609A
:100290007047816841F004018160704700B587B004
:1002A00001214FF4067001F0D9FB4FF4004001F03A
:1002B000B9FB1E20ADF8040000208DF8070001A94D
:1002C000174800F03FFB1748FFF774FF002002902B
:1002D0008DF80C008DF80D004FF460200490002084
:1002E000059001208DF8180002A90E48FFF7A4FF21
:1002F00001210C48FFF752FF0A48FFF7C5FF00BF76
:100300000848FFF78FFF0028FAD10648FFF7C1FF22
:1003100000BF0448FFF77CFF0028FAD107B000BDFA
:10032000001001400024014008B50121102001F017
:1003300095FB4020ADF8000010208DF8030003204D
:100340008DF802006946054800F0FCFA4021034898
:1003500000F0CCFB01200249086008BD00100140FC
:100360009801224210B5044602F0A4FD462002F096
:1003700077FD02F0C7FD012800D110BD204602F034
:100380006FFD02F0BFFD012801D10220F5E702F068
:10039000A9FD0020F1E710B500F0BEFD00F004F863
:1003A0001020FFF7DFFF10BD10B50120FFF7DAFFC7
:1003B00010BD00BFFEE700000EB51EA000F078F8EB
:1003C0000020102120A24FF6E073CDE90021029019
:1003D0001F221E210A2001F0A5FC0020102123A2CB
:1003E0004FF6E073CDE9002102901F2232210A204E
:1003F00001F098FC0120182122A24FF6E073CDE90C
:10040000002102901F2246210A2001F08BFC0120CE
:10041000202122A24FF6E073CDE9002102901F2295
:1004200064210A2001F07EFC4FF4966002F09EFCED
:100430000EBD0000B2E2CAD4363AD6D0CEC4CFD474
:10044000CABEB2E2CAD4000031365831363AC8AB1F
:10045000B6AFB5E7D7D3BCBCCAF5D3D0CFDEB9AB06
:10046000CBBEBBB6D3ADC4FA000000003136583164
:10047000363A57656C636F6D65C8ABB6AFB5E7D7F5
:10048000D300000032345832343AC9EEDBDACAD035
:10049000D6D0CEC4B2E2CAD4000000003332583302
:1004A000323AD7D6CCE5B2E2CAD400007047000099
:1004B0003EB504464FF6FF7000F0AEFD1F200090E1
:1004C0001948028814230021084600F06BFE1F2003
:1004D00000901548438802884088143881B2002073
:1004E00000F060FE4FF6FF701049088001201021D7
:1004F0001F234FF6FF72CDE9004102900221002038
:1005000000F0C8FC0120102109A2CDE900210290D1
:1005100005484088123881B21F234FF6FF72002031
:1005200000F0B8FC3EBD00007C0000206A00002006
:10053000687474703A2F2F7777772E6C63647769BD
:100540006B692E636F6D00002DE9F04704460D4680
:1005500016461F46DDE908893B46324629462046B5
:1005600000F09AFD4B4642463946304600F094FD75
:100570002B4622464946404600F08EFDBDE8F087F6
:100580000EB52BA0FFF794FF00200C212DA24FF6F3
:10059000E073CDE9002102901F221E210A2001F004
:1005A000C1FB01200C2132A24FF6E073CDE90021FE
:1005B00002901F222D210A2001F0B4FB00200C2103
:1005C00036A24FF6E073CDE9002102901F223C21B4
:1005D0000A2001F0A7FB0020102138A24FF6E0739B
:1005E000CDE9002102901F2250210A2001F09AFB40
:1005F000012010213CA24FF6E073CDE900210290CA
:100600001F2264210A2001F08DFB0020102141A24D
:100610004FF6E073CDE9002102901F2278210A20D5
:1006200001F080FB4FF4966002F0A0FB0EBD0000CD
:10063000B2E2CAD4353AD3A2CEC4CFD4CABEB2E253
:10064000CAD40000365831323A6162636465666725
:1006500068696A6B6C6D6E6F7071727374757677A2
:1006600078797A3031323334353637383900000012
:10067000365831323A4142434445464748494A4B4D
:100680004C4D4E4F505152535455565758595A305D
:10069000313233343536373839000000365831328C
:1006A0003A7E21402324255E262A28295F2B7B7D44
:1006B0003A3C3E3F2F7C2D2B2E000000385831361F
:1006C0003A6162636465666768696A6B6C6D6E6FD8
:1006D000707172737475767778797A303132333419
:1006E0003536373839000000385831363A41424300
:1006F0004445464748494A4B4C4D4E4F5051525342
:100700005455565758595A303132333435363738B4
:1007100039000000385831363A7E21402324255EC6
:10072000262A28295F2B7B7D3A3C3E3F2F7C2D2BB0
:100730002E0000002DE9FF4F85B000260027BDF8F0
:100740001800BDF82010884207DD08A906A802F0AD
:10075000E6FA07A905A802F0E2FABDF82000BDF804
:100760004C10884207DD08A913A802F0D8FA07A99F
:1007700012A802F0D4FABDF81800BDF82010884283
:1007800007DD08A906A802F0CAFA07A905A802F021
:10079000C6FABDF81800BDF84C10884238D1BDF833
:1007A000140003900490BDF81C00BDF8101088429E
:1007B00003DABDF81C00049008E0BDF81C00BDF889
:1007C0000C10884202DDBDF81C000390BDF8480003
:1007D000BDF81010884203DABDF84800049008E024
:1007E000BDF84800BDF80C10884202DDBDF8480095
:1007F0000390534800880090BDF81830BDF80C20D5
:100800001946BDF8100000F0CDFC09B0BDE8F08F2E
:10081000BDF81C00BDF81410A0EB010BBDF82000C2
:10082000BDF81810401A0290BDF84800BDF8141029
:10083000451ABDF84C00BDF81810A0EB0109BDF831
:100840004800BDF81C10A0EB010ABDF84C00BDF833
:100850002010401A0190BDF82000BDF84C108842CD
:1008600002D1BDF8208004E0BDF82000401E1FFA30
:1008700080F8BDF8184027E0029896FBF0F0BDF82C
:100880001410084480B2049097FBF9F0BDF81410DE
:10089000084480B203905E442F44BDF81000BDF8B8
:1008A0000C10884203DD03A904A802F038FA24489A
:1008B000008823460090BDF80C202146BDF81000AA
:1008C00000F070FC601C84B24445D5DDBDF820000A
:1008D000201A00FB0AF6BDF81800201A00FB05F7E5
:1008E00027E0019896FBF0F0BDF81C10084480B298
:1008F000049097FBF9F0BDF81410084480B20390FF
:1009000056442F44BDF81000BDF80C10884203DD9A
:1009100003A904A802F003FA0948008823460090BE
:10092000BDF80C202146BDF8100000F03BFC601C17
:1009300084B2BDF84C008442D3DD00BF65E70000FF
:100940006A0000202DE9F041024600250026002023
:1009500000230024002791F803C00CF00F0591F844
:1009600003C00CF0100CBCF1000F03D091F802C0D2
:100970004CEA050591F800C0BCF1000F31D01468B5
:1009800000202BE04FF0010C0CFA00F3B1F800C08E
:100990000CEA03069E4220D183004FF00F0C0CFAA4
:1009A00003F7BC4305FA03FC4CEA040491F803C0C6
:1009B000BCF1280F06D14FF0010C0CFA00FCC2F874
:1009C00014C00AE091F803C0BCF1480F05D14FF004
:1009D000010C0CFA00FCC2F810C0401C0828D1D34E
:1009E0001460B1F800C0BCF1FF0F34DD5468002082
:1009F0002EE000F1080C4FF0010808FA0CF3B1F8F2
:100A000000C00CEA03069E4221D183004FF00F0C78
:100A10000CFA03F7BC4305FA03FC4CEA040491F812
:100A200003C0BCF1280F05D100F1080C08FA0CF83E
:100A3000C2F8148091F803C0BCF1480F07D100F14F
:100A4000080C4FF0010808FA0CF8C2F81080401C9E
:100A50000828CED35460BDE8F0810000F0B50A4606
:100A6000002300240021002500F00046B6F1004FCD
:100A700002D11D4EF16901E01B4E7168C0F30345C0
:100A800083B200F44016B6F5401F08D121F0706122
:100A9000154E766826F07066134F7E6012E000F403
:100AA0008016B6F5801F06D1032606FA05F4A14389
:100AB00041F0706106E0460D360103FA06F6B143D7
:100AC00041F0706122B1460D360103FA06F631435A
:100AD00000F00046B6F1004F02D1034EF16101E093
:100AE000014E7160F0BD000000000140416170479F
:100AF000016170472DE9FC5F0546884691469A469C
:100B0000DDF830B000953E20019000245FE004EB5A
:100B10000410374911F810009BF80010884253D197
:100B200004EB0410324901EB400040789BF80110BF
:100B3000884249D108F10F0083B205F10F0082B25B
:100B40004146284600F0D0FC00263BE0002734E078
:100B50000D9890B904EB0410254901EB4000801C6E
:100B6000805D80213941084018B1484600F018FEE8
:100B700021E0504600F014FE1DE01E48A0F8009051
:100B800004EB04101A4901EB4000801C805D8021B9
:100B90003941084018B14146284600F0D5FA681C92
:100BA00085B20098281A102805D1009D08F101008F
:100BB0001FFA80F803E0781CC7B2082FC8DB00BF1B
:100BC000701CC6B2202EC1DB00BF601C84B201982D
:100BD00084429CDB08484088401E83B20648008857
:100BE000401E82B20021084600F07EFCBDE8FC9F5A
:100BF0007C3A00086A0000207C0000202DE9FC5FA0
:100C00000546884691469A46DDF830B000950720A3
:100C10000190002467E004EB840000EB44103A49A3
:100C200011F810009BF80010884259D104EB8400A1
:100C300000EB4410344901EB400040789BF8011070
:100C400088424DD108F1170083B205F1170082B236
:100C50004146284600F048FC00263FE0002738E0E7
:100C60000D98A0B904EB840000EB4410264901EB79
:100C70004000801C805D80213941084018B1484601
:100C800000F08EFD23E0504600F08AFD1FE01F4873
:100C9000A0F8009004EB840000EB44101A4901EB2B
:100CA0004000801C805D80213941084018B14146D8
:100CB000284600F049FA681C85B20098281A1828BE
:100CC00005D1009D08F101001FFA80F803E0781CAF
:100CD000C7B2082FC4DB00BF701CC6B2482EBDDBF4
:100CE00000BF601C84B20198844294DB08484088AD
:100CF000401E83B206480088401E82B2002108468A
:100D000000F0F2FBBDE8FC9FB84200086A0000203A
:100D10007C0000202DE9FC5F0546884691469A46F6
:100D2000DDF830B000950420019000245FE004EB72
:100D30008410374911F810009BF80010884253D1F5
:100D400004EB8410324901EB400040789BF801101D
:100D5000884249D108F11F0083B205F11F0082B219
:100D60004146284600F0C0FB00263BE0002734E067
:100D70000D9890B904EB8410254901EB4000801CCC
:100D8000805D80213941084018B1484600F008FDD7
:100D900021E0504600F004FD1DE01E48A0F8009040
:100DA00004EB84101A4901EB4000801C805D802117
:100DB0003941084018B14146284600F0C5F9681C81
:100DC00085B20098281A202805D1009D08F101005D
:100DD0001FFA80F803E0781CC7B2082FC8DB00BFF9
:100DE000701CC6B2802EC1DB00BF601C84B20198AB
:100DF00084429CDB08484088401E83B20648008835
:100E0000401E82B20021084600F06EFBBDE8FC9F48
:100E1000BE4400086A0000207C00002070B5054632
:100E20000E4614463146284600F054FB204600F09A
:100E3000B7FC70BD2DE9F04706460F46154607F191
:100E4000270083B206F1270082B23946304600F00F
:100E50004BFB00240AE015F8149005EB440090F8D1
:100E6000018049EA082000F09BFC641CB4F5C86FBF
:100E7000F1DB07484088401E83B205480088401EC9
:100E800082B20021084600F02FFBBDE8F087000089
:100E90007C0000202DE9FE4F0E4617469846DDE9FE
:100EA0000D9A0C9C2046FFF75FF985B20849098826
:100EB000A1EBC50000EBD071C1F34F0B43463A469E
:100EC000314658468DE8100600F02CFFBDE8FE8F35
:100ED0007C00002000BFFEE710B501F025FF4FF4B5
:100EE000A06000F0AFFC4FF4E13001F0A9FC00F08D
:100EF000B7F900F02FFC00F071F800F0ADFCFFF73F
:100F000013FAFFF748FAFFF7C9F9002140F28330DE
:100F100001F006F810BD000008B50121082000F01E
:100F20009DFDC020ADF8000003208DF802001420C4
:100F30008DF8030069460348FFF704FD01F0D2FF76
:100F400008BD0000000C014010B54FF48071084846
:100F5000FFF7CEFD20210648FFF7CAFD20210448F7
:100F6000FFF7C4FD4FF480710148FFF7BFFD10BDCE
:100F7000000C014010B54FF480710648FFF7B8FD32
:100F800020210448FFF7B2FD20210248FFF7B0FD01
:100F900010BD0000000C014010B54FF480710448F2
:100FA000FFF7A6FD4FF480710148FFF79FFD10BDCC
:100FB000000C014010B501F0C9FF01F097F901F0F4
:100FC00015FA01F013F901F0E7FAFFF7D9FAFFF784
:100FD000F3F900F0D9FC00F0CBFD10BD08B50121FC
:100FE000442000F03BFD1820ADF8000048208DF8AB
:100FF000030069460648FFF7A5FC0120ADF8000094
:1010000028208DF8030069460248FFF79BFC08BDC5
:10101000001801400008014070B50646134840889A
:10102000401E83B211480088401E82B2002108464B
:1010300000F05AFA02200E4908600120091F0860DA
:1010400000240AE0002503E0304600F0A9FB6D1CF7
:1010500006480088A842F7D8641C04484088A0428B
:10106000F0D802200249091F086070BD7C000020F2
:10107000140C0140F8B504460D4616461F460548B7
:1010800000883B46324629460090204600F08AF808
:10109000F8BD00006A0000202DE9FF4F85B08146B1
:1010A0008A460020049003900798A0EB0905089851
:1010B000A0EB0A06CDF80890CDF804A0002D01DDC4
:1010C000012705E00DB9002702E04FF0FF376D4220
:1010D000002E02DD4FF0010806E016B94FF00008BF
:1010E00002E04FF0FF387642B54201DD2C4600E0C9
:1010F00034464FF0000B21E0019A91B2029A90B26F
:1011000000F022F804982844049003983044039097
:101110000498A04205DD0498001B0490029838440E
:1011200002900398A04205DD0398001B03900198EC
:10113000404401900BF101001FFA80FB601C8345C5
:10114000DADD09B0BDE8F08F70B504460D462946DA
:10115000204600F0BFF90248008800F021FB70BD76
:101160006A0000202DE9F04104460D4616461F4650
:101170002B46324629462046FFF78EFF3B46224645
:1011800029462046FFF788FF3B463246394620462F
:10119000FFF782FF3B46324629463046FFF77CFF89
:1011A000BDE8F0812DE9F05F04460D4616461F4666
:1011B000301B401C1FFA80FA781B401C1FFA80FB72
:1011C0003B4632462946204600F08EF94FF0000893
:1011D0000FE04FF0000906E00A9800F0E1FA09F18B
:1011E00001001FFA80F9D145F6DB08F101001FFA72
:1011F00080F8D845EDDB07484088401E83B205489B
:101200000088401E82B20021084600F06DF9BDE85A
:10121000F09F00007C00002008B50121082000F0AC
:101220001DFC4BF20320ADF8000003208DF80200F6
:1012300010208DF8030069460848FFF783FB4FF440
:101240008040ADF8000048208DF8030003208DF8A1
:10125000020069460148FFF775FB08BD000C01401C
:1012600010B5FFF7D9FF00F021F9CF2000F00CFAFC
:10127000002000F0F7F9C92000F0F4F9302000F068
:10128000F1F9ED2000F000FA642000F0EBF9032002
:1012900000F0E8F9122000F0E5F9812000F0E2F911
:1012A000E82000F0F1F9852000F0DCF9102000F0D2
:1012B000D9F97A2000F0D6F9CB2000F0E5F93920F1
:1012C00000F0D0F92C2000F0CDF9002000F0CAF990
:1012D000342000F0C7F9022000F0C4F9F72000F034
:1012E000D3F9202000F0BEF9EA2000F0CDF900206B
:1012F00000F0B8F9002000F0B5F9C02000F0C4F902
:101300001B2000F0AFF9C12000F0BEF9002000F072
:10131000A9F9C52000F0B8F9302000F0A3F9302079
:1013200000F0A0F9C72000F0AFF9B72000F09AF95B
:10133000362000F0A9F9082000F094F93A2000F0D6
:10134000A3F9552000F08EF9B12000F09DF900209E
:1013500000F088F91A2000F085F9B62000F094F921
:101360000A2000F07FF9A22000F07CF9F22000F0C2
:101370008BF9002000F076F9262000F085F9012095
:1013800000F070F9E02000F07FF90F2000F06AF91A
:101390002A2000F067F9282000F064F9082000F006
:1013A00061F90E2000F05EF9082000F05BF954208E
:1013B00000F058F9A92000F055F9432000F052F947
:1013C0000A2000F04FF90F2000F04CF9002000F047
:1013D00049F9002000F046F9002000F043F9002010
:1013E00000F040F9E12000F04FF9002000F03AF958
:1013F000152000F037F9172000F034F9072000F02D
:1014000031F9112000F02EF9062000F02BF92B20E5
:1014100000F028F9562000F025F93C2000F022F9D0
:10142000052000F01FF9102000F01CF90F2000F03B
:1014300019F93F2000F016F93F2000F013F90F20B2
:1014400000F010F92B2000F01FF9002000F00AF93D
:10145000002000F007F9012000F004F93F2000F01F
:1014600001F92A2000F010F9002000F0FBF800201C
:1014700000F0F8F8002000F0F5F8EF2000F0F2F8A6
:10148000112000F001F9782001F070FC292000F013
:10149000FBF8002000F01CF90120034908604FF61A
:1014A000FF70FFF7B9FD10BDA481214210B54FF4C4
:1014B000805007490860642001F058FC4FF48050C8
:1014C0000349091F0860322001F050FC10BD0000E4
:1014D000140C014070B504460D462B4622462946A1
:1014E000204600F001F870BD2DE9F04104460D469C
:1014F00016461F461149887A00F0C6F8201200F0FF
:10150000B1F8E0B200F0AEF8301200F0ABF8F0B293
:1015100000F0A8F80949087B00F0B6F8281200F09E
:10152000A1F8E8B200F09EF8381200F09BF8F8B28B
:1015300000F098F800F0BAF8BDE8F0817C000020D7
:101540002DE9FF4F83B081468A469346DDE910645A
:10155000404800880290A6F12000C6B204EBD47087
:1015600009EB6000401E82B20AEB0400401E83B209
:10157000514648460194FFF7B7FF129850BB00252B
:1015800025E00C2C07D106EB4600334901EB800027
:1015900010F8058004E0314800EB061010F80580D3
:1015A00000270DE008F0010018B1584600F0F8F8E7
:1015B00002E0069800F0F4F84FEA6808781CC7B219
:1015C00004EBD471B7EB610FECDB681CC5B2A5422C
:1015D000D7DB2DE0002529E00C2C07D106EB4600D7
:1015E0001D4901EB800010F8058004E01B4800EB6A
:1015F000061010F80580002711E01648A0F800B08A
:1016000008F0010038B10AEB050291B209EB0702BC
:1016100090B2FFF799FD4FEA6808781CC7B204EB57
:10162000D471B7EB610FE8DB681CC5B2A542D3DB10
:101630000849029808800A484088401E83B208483A
:101640000088401E82B200210846FFF74DFF07B018
:10165000BDE8F08F6A000020183000088C340008C4
:101660007C00002010B504460220064908600120D5
:10167000091F0860204600F0BFFA02200149091F37
:10168000086010BD140C014010B504460220064944
:10169000086001200860204600F0AEFA02200249EE
:1016A000091F086010BD0000140C014010B502496C
:1016B000087AFFF7E9FF10BD7C00002070B50546F1
:1016C0000C462846FFF7E0FFE0B2FFF7CBFF70BD06
:1016D00010B504462A201E4948812B2088812C20E1
:1016E000088134B1012C0FD0022C18D0032C2CD13E
:1016F00020E0F020164908804FF4A07048800821AF
:101700003620FFF7DBFF21E04FF4A070104908807E
:10171000F020488068213620FFF7D0FF16E0F02047
:101720000B4908804FF4A0704880C8213620FFF78D
:10173000C5FF0BE04FF4A07005490880F0204880F9
:10174000A8213620FFF7BAFF00E000BF00BF10BDA0
:101750007C00002008B50121482000F07FF93020EE
:10176000ADF8000010208DF8030003208DF8020072
:1017700069460948FFF7E6F830210748FFF7B8F94E
:101780002020ADF8000069460448FFF7DBF820216F
:101790000248FFF7ADF908BD000C014000180140F8
:1017A00010B504460220084908600120091F08609E
:1017B000201200F021FAE0B200F01EFA02200249E5
:1017C000091F086010BD0000140C014000BFFEE7B7
:1017D0007047000070B5002100230F22C47804B3C5
:1017E000154C246804F4E064C4F5E064210AC1F1F6
:1017F0000403CA40447804FA03F184781440214376
:1018000009010E4C0678A155047804F01F05012447
:10181000AC4005786D11AD0005F1E025C5F800413B
:1018200009E0047804F01F050124AC40044D06785B
:10183000761145F8264070BD0CED00E000E400E0B4
:1018400080E100E002490143024A11607047000054
:101850000000FA050CED00E008B50121082000F0B9
:10186000FDF84FF49070ADF8000010208DF80300E3
:1018700003208DF8020069463B48FFF763F84FF4F8
:1018800090713948FFF734F9C82001F06FFA002150
:10189000AE2000F06BF80021084600F067F8002148
:1018A000102000F063F80021402000F05FF80021D4
:1018B000B02000F05BF80021812000F057F80021F3
:1018C000FF2000F053F80021A12000F04FF8002184
:1018D000A62000F04BF80021A82000F047F80021D6
:1018E0003F2000F043F80021C82000F03FF800211D
:1018F000D32000F03BF80021084600F037F8002123
:10190000D52000F033F80021802000F02FF80021CE
:10191000D82000F02BF80021052000F027F8002146
:10192000D92000F023F80021F12000F01FF8002159
:10193000DA2000F01BF80021122000F017F8002137
:10194000DB2000F013F80021302000F00FF8002118
:101950008D2000F00BF80021142000F007F8002182
:10196000AF2000F003F808BD000C014070B504463C
:101970000D461DB1E0B201F06BF902E0E0B201F0FA
:1019800051F970BD704700000EB51FA0FEF790FD25
:10199000224A1E210846FFF74DFA0120102120A2FD
:1019A0004FF6E073CDE9002102901F224B212A203F
:1019B00000F0B8F9194A1E215A20FFF73BFA01201E
:1019C000102117A24FF6E073CDE9002102901F22EB
:1019D0004B21662000F0A6F9104A1E219620FFF741
:1019E00029FA012010210EA24FF6E073CDE9002163
:1019F00002901F224B21A22000F094F94FF4966030
:101A000001F0B4F90EBD0000B2E2CAD4373ACDBC41
:101A1000C6ACCFD4CABEB2E2CAD40000C8460008E1
:101A20005151000001460020034A506820F4404014
:101A300008435060704700000010024029B1064A78
:101A4000D2690243044BDA6104E0034AD26982435B
:101A5000014BDA61704700000010024029B1064ACC
:101A600092690243044B9A6104E0034A92698243FB
:101A7000014B9A61704700000010024029B1064AEC
:101A8000D2680243044BDA6004E0034AD26882431E
:101A9000014BDA60704700000010024030B50021B1
:101AA0000022002400232D4D6D6805F00C0121B1AA
:101AB000042905D0082923D105E0294D056022E03D
:101AC000274D05601FE0254D6D6805F47012234D0C
:101AD0006D6805F48034022505EB92421CB9214D56
:101AE000554305600BE01D4D6D6805F400351DB1D3
:101AF0001C4D5543056002E0194D5543056002E059
:101B0000174D056000BF00BF144D6D6805F0F00172
:101B10000909154D6B5C0568DD4045600F4D6D682A
:101B200005F4E061090A104D6B5C4568DD40856095
:101B30000A4D6D6805F46051C90A0B4D6B5C456830
:101B4000DD40C560054D6D6805F44041890B074DCA
:101B50006B5CC568B5FBF3F5056130BD0010024054
:101B600000127A0000093D005600002066000020A7
:101B700010B588B00024194B0FCBCDE90623CDE971
:101B8000040100BF23E02046FFF7A2FD14A0FEF7EA
:101B90008FFC0121102204A850F824004FF6E073B6
:101BA000CDE9012100901F221E21142000F0BAF877
:101BB000104A32211E20FFF73DF94FF47A7001F0F0
:101BC000D5F84FF47A7001F0D1F8601CC4B2042C3F
:101BD000D9DB0020FFF77CFD08B010BD485300089A
:101BE000B2E2CAD4383AC6C1C4BBD0FDD7AAB2E269
:101BF000CAD40000C84600080021082117E000F000
:101C0000800222B14FF400420A4B1A6004E04FF404
:101C10000042084B1B1D1A604FF40052054B1B1D60
:101C20001A601B1F1A604206100E4A1ED1B200290C
:101C3000E5DC7047100C0140704710B500F002F869
:101C400010BD00000CB500200190009033480068E2
:101C500040F480303149086000BF3048006800F42B
:101C6000003000900198401C0190009818B901982C
:101C7000B0F5A06FF1D12948006800F4003010B130
:101C80000120009001E0002000900098012843D13D
:101C90002348006840F010002149086008460068A9
:101CA00020F0030008600846006840F00200086069
:101CB0001A48406819494860084640684860084624
:101CC000406840F4806048600846406820F47C101A
:101CD00048600846406840F4E810486008460068DC
:101CE00040F08070086000BF0C48006800F0007091
:101CF0000028F9D00948406820F0030007494860EF
:101D00000846406840F00200486000BF0348406851
:101D100000F00C000828F9D10CBD000000100240B2
:101D2000002002402DE9FF4F83B0064688469146C9
:101D3000DDE91147109DB2464FF0000B71E0BBF199
:101D4000000F40D104EBD471384A1288A2EB610134
:101D5000B14204DB35494988091B414502DA07B025
:101D6000BDE8F08F2878802802DD4FF0010B58E0A5
:101D700028780D2806D108EB04001FFA80F8564693
:101D80006D1C1EE0102C0DDD102128788DE88300DD
:101D90004A4641463046069BFFF7D2FB06F1080053
:101DA00086B20EE028788DE891004A4641463046DA
:101DB000069BFFF7C5FB204604EBD07106EB6101E3
:101DC0008EB26D1C2DE019480088001BB04204DB68
:101DD00016484088001B404500DAC0E74FF0000B72
:101DE000202C08D1CDE900574A4641463046069B93
:101DF000FEF790FF12E0182C08D1CDE900574A46B3
:101E000041463046069BFEF7F9FE07E0CDE9005754
:101E10004A4641463046069BFEF76CFEAD1C301923
:101E200086B2287800288AD100BF98E77C0000207D
:101E3000042808D14FF0E021096941F004014FF076
:101E4000E022116107E04FF0E021096921F004016F
:101E50004FF0E022116170477047000010B5134841
:101E6000006840F0010011490860084640681049C8
:101E700008400E494860084600680E4908400B4972
:101E800008600846006820F4802008600846406822
:101E900020F4FE0048604FF41F008860FFF7CDFE7D
:101EA0004FF000600449086010BD000000100240BF
:101EB0000000FFF8FFFFF6FE08ED00E010B501217D
:101EC000034800F0CFF80121014800F0B9F810BD37
:101ED000002C014010B50121880700F0C3F858B16B
:101EE0000121880700F0AFF804480068401C03494E
:101EF000086001200249086010BD000018000020A1
:101F00002000002010B50121044800F0ABF818B102
:101F10000121024800F097F810BD000000040040C5
:101F200030B589B005460C4601210220FFF786FD39
:101F300001210920FFF792FD01211A48FEF78EFDCD
:101F40002020ADF8200018208DF8230003208DF804
:101F5000220008A91448FEF7F5FCADF81850ADF8BA
:101F600014400020ADF81A00ADF8160005A90F487E
:101F700000F0EAF87020ADF804000120ADF806008A
:101F80000020ADF80C0001A9084800F07DF80821F8
:101F9000064800F0CBF80121044800F057F809B0DA
:101FA00030BD000000081A00000C01400004004091
:101FB00010B50121084800F055F858B10121064834
:101FC00000F041F805480068401C04490860012001
:101FD0000349086010BD00000008004024000020F4
:101FE0002C00002010B50121084800F03BF858B142
:101FF0000121064800F027F805480068401C044904
:10200000086001200349086010BD0000000C00407A
:10201000000000200800002010B50121064800F053
:1020200021F840B10121044800F00DF80348006890
:10203000401C0249086010BD001000403000002024
:10204000CA4302827047CA430282704721B10288A4
:1020500042F00102028004E002884FF6FE731A404B
:102060000280704730B50246002000230024158A04
:1020700005EA0103958905EA010413B10CB10120B9
:1020800000E0002030BD000070B5002400220023D5
:10209000058C4FF6EF7635400584028C8388048BDF
:1020A00048F6FF752C404FF6FF452C400D884FF643
:1020B000FF7606EA05252C434FF6DF752A400D8989
:1020C00006EA05152A434D8806EA05152A43154DEB
:1020D000A84202D0144DA8421DD14FF67F752A4068
:1020E0004D894FF6FF7606EA05152A434FF6BF7570
:1020F0002A408D8806EA05152A434FF6FF352B4006
:102100004FF2FF752B408D8906EA85052B43CD895B
:1021100006EA85052B4383800483CD8805870284E6
:1021200070BD0000002C0140003401400A4600212F
:10213000018B4FF2FF7319404FF6FF7303EA02233E
:102140001943018370470000002202881D4B98420A
:102150000ED01D4B98420BD0B0F1804F08D01B4BD6
:10216000984205D01A4B984202D01A4B984204D19B
:102170004FF68F731A404B881A43174B984207D07B
:10218000164B984204D04FF6FF431A40CB881A43AF
:1021900002808B8883850B8803850A4B98420BD07D
:1021A000094B984208D00E4B984205D00D4B9842EF
:1021B00002D00D4B984201D10B7A03860123838212
:1021C00070470000002C0140003401400004004032
:1021D00000080040000C00400010004000140040C7
:1021E000004001400044014000480140F8B500248F
:1021F00036A0FEF75DF94FF6FF7000903948408831
:10220000143883B23748028814210020FEF7CAFF31
:1022100000BF1FE00020334B00905D8805EBD573B5
:102220005B10323B04EBC40707EB0417D9192D4BA5
:102230001E8806EBD6735B10503B04EBC40707EB1C
:102240000417D819284B33F814201E2300F0B4FDCE
:10225000601CC4B2052CDDDB40F2DC5000F086FDD2
:102260004FF6FF7000901F484088143883B21D4815
:10227000028814210020FEF795FF00241FE00120B2
:10228000184B00905D8805EBD5735B10323B04EB77
:10229000C40707EB0417D919124B1E8806EBD67337
:1022A0005B10503B04EBC40707EB0417D8190E4B27
:1022B00033F814201E2300F07FFD601CC4B2052CEF
:1022C000DDDB40F2DC5000F051FDF8BDB2E2CAD4D3
:1022D000333A475549BBADD4B2CCEEB3E4B2E2CA0F
:1022E000D40000007C000020700000200EB54FF6E6
:1022F000FF70009034484388028800210846FEF7AA
:1023000051FF0120102131A24FF6E073CDE90021E9
:1023100002901F221E211420FFF704FD4FF4487085
:1023200000F024FD4FF4784000902748438802884D
:1023300000210846FEF736FF0120102125A24FF6A6
:10234000E073CDE9002102901F221E211420FFF727
:10235000E9FC4FF4487000F009FD4FF4FC60009078
:1023600019484388028800210846FEF71BFF012018
:1023700010211AA24FF6E073CDE9002102901F222E
:102380001E211420FFF7CEFC4FF4487000F0EEFC45
:102390001F2000900C484388028800210846FEF761
:1023A00001FF012010210FA24FF6E073CDE90021BB
:1023B00002904FF478421E211420FFF7B3FC4FF433
:1023C000487000F0D3FC0EBD7C000020424C20542D
:1023D0006573740052454420000000004752454593
:1023E0004E200000424C5545200000002DE9F843E6
:1023F000002460A0FEF75CF84FF6FF700090634881
:102400004088143883B26148028814210020FEF706
:10241000C9FE00BF48E05E4830F814005D490880FE
:10242000DFF868C1BCF8025005EBD57C4FEA6C0CB4
:10243000ACF1500CC4EB0419CC440CF13C0C1FFA69
:102440008CF3DFF848C1BCF8006006EBD67C4FEA9D
:102450006C0CACF1500CC4EB0419CC440CF13C0CEA
:102460001FFA8CF2DFF824C1BCF8027007EBD77CAE
:102470004FEA6C0CACF1500CC4EB0419CC441FFABD
:102480008CF1DFF808C1BCF8008008EBD87C4FEA7B
:102490006C0CACF1500CC4EB0419CC441FFA8CF05A
:1024A000FEF760FE601CC4B2052CB4DB40F2DC50C9
:1024B00000F05CFC4FF6FF70009034484088143800
:1024C00083B23248028814210020FEF76BFE0024FC
:1024D00048E02F4830F814002E490880DFF8ACC0DF
:1024E000BCF8026006EBD67C4FEA6C0CACF1500CE9
:1024F000C4EB0419CC440CF13C0C1FFA8CF3DFF84C
:102500008CC0BCF8007007EBD77C4FEA6C0CACF1C8
:10251000500CC4EB0419CC440CF13C0C1FFA8CF2A7
:10252000DFF868C0BCF8028008EBD87C4FEA6C0C7E
:10253000ACF1500CC4EB0419CC441FFA8CF1DFF859
:102540004CC0BCF8005005EBD57C4FEA6C0CACF1EC
:10255000500CC4EB0419CC441FFA8CF0FEF78AFD32
:10256000601CC4B2052CB4DB40F2DC5000F0FEFB72
:10257000BDE8F883B2E2CAD4323A475549BED8D052
:10258000CECCEEB3E4B2E2CAD40000007C0000205E
:10259000700000206A0000202DE9FC5F002475A077
:1025A000FDF786FF4FF6FF70009079484088143899
:1025B00083B27748028814210020FEF7F3FD00BFA4
:1025C0005DE0744830F8140073490880704845880D
:1025D00005EBD57040101438C4EB0411084481B2E7
:1025E0006B48068806EBD6704010153804EB840261
:1025F00000EB820080B2DFF898C1CDE90001BCF8A1
:10260000027007EBD77C4FEA6C0CACF1490CC4EBC1
:10261000041BDC441FFA8CF3DFF874C1BCF80080A3
:1026200008EBD87C4FEA6C0CACF1330C04EB840B58
:102630000CEB8B0C1FFA8CF2DFF854C1BCF8029043
:1026400009EBD97C4FEA6C0CACF1140CC4EB041B05
:10265000DC441FFA8CF1DFF838C1BCF800A00AEBAB
:10266000DA7C4FEA6C0CACF1500C04EB840B0CEBF5
:102670008B0C1FFA8CF0FDF767FF601CC4B2052CB1
:102680009FDB40F2DC5000F071FB4FF6FF700090D2
:102690003F484088143883B23D4802881421002006
:1026A000FEF780FD00245DE03A4830F814003A4916
:1026B00008803748458805EBD57040101438C4EBC6
:1026C0000411084481B23248068806EBD6704010E7
:1026D000153804EB840200EB820080B2DFF8B0C052
:1026E000CDE90001BCF8027007EBD77C4FEA6C0C17
:1026F000ACF1490CC4EB041BDC441FFA8CF3DFF88B
:1027000090C0BCF8008008EBD87C4FEA6C0CACF1B0
:10271000330C04EB840B0CEB8B0C1FFA8CF2DFF800
:1027200070C0BCF8029009EBD97C4FEA6C0CACF19C
:10273000140CC4EB041BDC441FFA8CF1DFF850C00E
:10274000BCF800A00AEBDA7C4FEA6C0CACF1500C40
:1027500004EB840B0CEB8B0C1FFA8CF0FDF7EAFFFB
:10276000601CC4B2052C9FDB40F2DC5000F0FEFA86
:10277000BDE8FC9FB2E2CAD4343A475549205472AE
:1027800069616E676C65CCEEB3E4B2E2CAD4000056
:102790007C000020700000206A00002010B540F28C
:1027A00025510C4800F018F970B10A4800F0D0F932
:1027B000C4B22146074800F0D0F900BF40210548C7
:1027C00000F0FDF80128F9D14021024800F0E2F8BC
:1027D00010BD0000004C004010B540F225510C48DF
:1027E00000F0FAF870B10A4800F0B2F9C4B221461C
:1027F000074800F0B2F900BF4021054800F0DFF8BB
:102800000128F9D14021024800F0C4F810BD0000B1
:102810000050004000BF028802F04002002AFAD0B7
:102820008180704710B504460B4604E019782046B5
:10283000FFF7F0FF5B1C18780028F7D110BD0000EF
:1028400010B586B00446012144F20400FFF706F9F2
:102850004FF40070ADF8140003208DF81600182016
:102860008DF8170005A91C48FEF76CF84FF480603E
:10287000ADF8140004208DF8170005A91648FEF7DE
:1028800061F825208DF8000003208DF801008DF8F7
:10289000020001208DF803006846FEF79BFF0194BB
:1028A0000020ADF80800ADF80A00ADF80C00ADF856
:1028B00010000C20ADF80E0001A9084800F0DCF86B
:1028C000012240F22551054800F0B0F801210348EB
:1028D00000F069F806B010BD000801400038014062
:1028E00010B540F225510C4800F076F870B10A4856
:1028F00000F02EF9C4B22146074800F02EF900BFBF
:102900004021054800F05BF80128F9D14021024838
:1029100000F040F810BD00000038014010B540F252
:1029200025510C4800F058F870B10A4800F010F931
:10293000C4B22146074800F010F900BF4021054805
:1029400000F03DF80128F9D14021024800F022F8BA
:1029500010BD00000044004010B540F225510C4865
:1029600000F03AF870B10A4800F0F2F8C4B221461B
:10297000074800F0F2F800BF4021054800F01FF8BA
:102980000128F9D14021024800F004F810BD0000F0
:102990000048004001F40072B2F5007F00D100BF92
:1029A000CA430280704721B1828942F40052828179
:1029B00004E082894DF6FF731A4082817047024617
:1029C0000020B1F5007F00D100BF13880B400BB190
:1029D000012000E00020704770B50246002400236B
:1029E0000025002040F66A16B14200D100BFC1F3B5
:1029F000421501F01F03012606FA03F3012D02D14F
:102A00009689334006E0022D02D1168A334001E058
:102A1000968A33400C12012606FA04F416883440D4
:102A200013B10CB1012000E0002070BDF0B50346E9
:102A3000002400260025002040F66A17B94200D184
:102A400000BF1846C1F3421401F01F06012707FA20
:102A500006F5012C01D10C3004E0022C01D110301C
:102A600000E014301AB107682F43076002E00768DE
:102A7000AF430760F0BD00002DE9F04786B0054682
:102A80000E460024A24600BFA1460027B08900B12F
:102A900000BF2F462C8A4CF6FF700440F088044398
:102AA0002C82AC894EF6F3100440B088318908437B
:102AB000718908430443AC81AC8A4FF6FF4004405F
:102AC000B0890443AC8201A8FEF7E8FF1F488742A3
:102AD00002D1DDF810A001E0DDF80CA0A88900F417
:102AE000004040B10AEBCA0000EB0A10316849000F
:102AF000B0FBF1F807E00AEBCA0000EB0A103168FE
:102B00008900B0FBF1F86420B8FBF0F00401200963
:102B1000642101FB1089A88900F4004040B13220F3
:102B200000EBC900B0FBF1F000F00700044308E03F
:102B3000322000EB09106421B0FBF1F000F00F002F
:102B400004432C8106B0BDE8F08700000038014046
:102B500001468888C0F308007047C1F308028280EC
:102B6000704700BFFEE70000002001490860704781
:102B7000082C004010B50948007800F01DF8FFF758
:102B8000F3FF0748006808B9012000E0002004496D
:102B9000086004A10748FFF745FE10BD5000002063
:102BA00094012342575744472074657374200D0ADB
:102BB000000000000038014000F07F01014A116070
:102BC00070470000002C00402DE9F04105462C46DE
:102BD0004FF480711248FDF789FF00261BE027465D
:102BE00007F08007802F04D120210D48FDF780FFDA
:102BF00003E020210A48FDF779FF6006040E4FF438
:102C000080710748FDF774FF4FF480710448FDF7A9
:102C10006DFF701CC6B2082EE1DBBDE8F08100003C
:102C2000000C014010B50446FEF78EF97820FFF73E
:102C3000CBFFFEF7B1F90020FFF7C6FFFEF7ACF9B6
:102C40002046FFF7C1FFFEF7A7F9FEF793F910BD85
:102C500010B50446FEF778F97820FFF7B5FFFEF7C8
:102C60009BF94020FFF7B0FFFEF796F92046FFF7EB
:102C7000ABFFFEF791F9FEF77DF910BD02E008C841
:102C8000121F08C1002AFAD170477047002001E0E6
:102C900001C1121F002AFBD170472DE9F041044603
:102CA0000D4616461F46DDF81880EA1991B2A219A2
:102CB00090B24246FEF7B2F8EA1991B2A21B90B266
:102CC0004246FEF7ABF8EA1B91B2A21990B2424617
:102CD000FEF7A4F8EA1B91B2A21B90B24246FEF79F
:102CE0009DF8AA1991B2E21990B24246FEF796F801
:102CF000AA1991B2E21B90B24246FEF78FF8AA1BC6
:102D000091B2E21990B24246FEF788F8AA1B91B23E
:102D1000E21B90B24246FEF781F8BDE8F0810288DE
:102D20000B8803800A80704710B56FF00400FFF72E
:102D30007FF80A4800680A49B0FBF1F009490870B9
:102D40000846007800EB4001C1EBC0104FF6FF7160
:102D500001EAC0000449088010BD00003C000020CA
:102D600000127A0052000020540000200146114A4F
:102D700012884A434FF0E0235A6100229A611A46B2
:102D8000126942F001021A6100BF4FF0E02210699F
:102D900000F001021AB100F48032002AF5D04FF0A1
:102DA000E022126922F001024FF0E0231A610022B2
:102DB0009A617047540000202DE9FF4F81B0824690
:102DC00017469846DDF838B0002445464FEA4800DB
:102DD000C0F10306BBF1000F1FD01BE0A14608E0C5
:102DE0004B462246009750460299FFF756FF09F1DD
:102DF0000109A945F4DD002E04DA042000FB04607B
:102E0000861D06E0601B042101FB006000F10A063C
:102E10006D1E641CAC42E1DD18E015E02B46224635
:102E2000009750460299FFF738FF002E04DA04207D
:102E300000FB0460861D06E0601B042101FB0060AE
:102E400000F10A066D1E641CAC42E7DD05B0BDE86A
:102E5000F08F002001E0411CC8B20A28FBDB70475C
:102E600070B50446002520E004F0800018B18020F1
:102E70000F49086003E080200D49091D0860FFF735
:102E8000E8FF40200A490860FFF7E3FF40200849B7
:102E9000091D0860072D02D18020091F0860600607
:102EA000040EFFF7D6FF681CC5B2082DDCDB70BD31
:102EB000100C014010B580200949086040200860CE
:102EC000FFF7C7FF80200649091D0860FFF7C1FF13
:102ED00040200349091D0860FFF7BBFF10BD00003B
:102EE000100C014010B58020054908604020091FE2
:102EF0000860FFF7AEFF80200149091F086010BD80
:102F0000140C014010B580200C490860FFF7A1FFA8
:102F100040200A490860FFF79CFF0848083800680D
:102F200000F0800008B1012400E0002440200349A3
:102F3000091D0860FFF78DFF204610BD100C0140F1
:102F4000FDF7CAFF01E0FEF735F8FCE70EB51EA05D
:102F5000FDF7AEFA0120102121A21F23CDE90021A7
:102F60000290DA021E210020FDF794FF01201021BB
:102F700017A21F23CDE900210290DA023C21002094
:102F8000FDF788FF0120102118A21F23CDE90021A1
:102F900002904FF4FC625A210020FDF77BFF0120D4
:102FA000102118A21F23CDE9002102901A46782192
:102FB0000020FDF76FFF40F2DC50FFF7D7FE40F234
:102FC000DC50FFF7D3FE0EBDC8ABB6AFB5E7D7D325
:102FD000D7DBBACFB2E2CAD4B3CCD0F20000000043
:102FE000C8ABB6AFB5E7D7D300000000322E382209
:102FF00020494C493933343120323430583332305F
:103000000000000064656C65687562203230323102
:103010002D30322D30320000000000000000000092
:103020000000000000000404040404040004000084
:1030300000140A0A00000000000000000000141440
:103040003F140A3F0A0A000000041E1505060C146E
:10305000150F0400000012150D0A142C2A1200008E
:103060000000040A0A1E15150936000000020201BC
:1030700000000000000000000020100808080808F8
:1030800008102000000204080808080808040200CC
:1030900000000004150E0E150400000000000404DA
:1030A000041F0404040000000000000000000000F1
:1030B0000002020100000000001F000000000000EC
:1030C00000000000000000000002000000100808DE
:1030D000080404020202010000000E111111111176
:1030E000110E00000000040604040404040E000095
:1030F00000000E1111080402011F000000000E1153
:10310000100C1010110E00000000080C0A0A091E15
:103110000818000000001F01010F1010110E000020
:1031200000000E09010F1111110E000000001F090F
:10313000080404040404000000000E11110E111113
:10314000110E000000000E1111111E10120E0000D1
:103150000000000004000000000400000000000067
:103160000004000000040400002010080402040809
:1031700010200000000000001F00001F00000000E1
:1031800000020408102010080402000000000E11C4
:10319000110804040004000000000E111915151D8B
:1031A000011E0000000004040C0A0A1E1233000075
:1031B00000000F12120E1212120F000000001E115A
:1031C00001010101110E000000000F121212121273
:1031D000120F000000001F120A0E0A02121F000048
:1031E00000001F120A0E0A020207000000001C1253
:1031F00001013911120C000000003312121E1212CC
:103200001233000000001F0404040404041F000023
:1032100000003E08080808080809070000003712E7
:103220000A060A0A12370000000007020202020220
:10323000223F000000001B1B1B1B1515151500006D
:1032400000003B1216161A1A1217000000000E1189
:1032500011111111110E000000000F12120E0202C6
:103260000207000000000E1111111117190E1800AD
:1032700000000F12120E0A121237000000001E1179
:1032800001060810110F000000001F1504040404BB
:10329000040E00000000331212121212120C000071
:1032A00000003312120A0A0C040400000000151575
:1032B000150E0A0A0A0A000000001B0A0A04040A82
:1032C0000A1B000000001B0A0A040404040E00008C
:1032D00000001F0908040402121F0000001C04045F
:1032E0000404040404041C0000020202040408088C
:1032F00008100000000E08080808080808080E005A
:1033000000040A00000000000000000000000000AF
:10331000000000000000003F00040000000000006A
:103320000000000000000000000C121C123C000015
:1033300000000302020E1212120E00000000000034
:10334000001C1202021C000000001810101C1212B7
:10335000123C000000000000000C121E021C0000C5
:1033600000003804041E0404041E000000000000D5
:10337000003C120C021E221C00000302020E12125C
:10338000123700000000040000060404040E0000D0
:1033900000000800000C08080808080700000302E5
:1033A000023A0A0E12370000000007040404040465
:1033B000041F000000000000000F15151515000087
:1033C00000000000000F1212123700000000000081
:1033D000000C1212120C000000000000000F12126C
:1033E000120E020700000000001C1212121C1038FE
:1033F00000000000001B06020207000000000000A1
:10340000001E020C101E000000000004040E040444
:103410000418000000000000001B1212123C000003
:10342000000000000037120A0C0400000000000039
:103430000015150E0A0A000000000000001B0A0417
:103440000A1B0000000000000037120A0C040403ED
:1034500000000000001E0804041E000000180808F8
:1034600008040808080818000808080808080808D8
:1034700008080808000604040408040404040600FC
:1034800002251800000000000000000000000000FD
:103490000000000000000000000000000000000824
:1034A00008080808080800001818000000486C24E4
:1034B00012000000000000000000000000000024D6
:1034C00024247F1212127F12121200000000081C26
:1034D0002A2A0A0C1828282A2A1C08080000002278
:1034E000251515152A585454542200000000000CCC
:1034F0001212120A76252911916E000000060604A8
:103500000300000000000000000000000040201048
:1035100010080808080808101020400000020408DD
:10352000081010101010100808040200000000001D
:1035300008086B1C1C6B080800000000000000005D
:10354000080808087F0808080800000000000000BC
:103550000000000000000000060604030000000058
:1035600000000000FE00000000000000000000005D
:10357000000000000000000006060000000080407F
:103580004020201010080804040202000000001867
:1035900024424242424242422418000000000008F5
:1035A0000E08080808080808083E00000000003C53
:1035B0004242422020100804427E00000000003CED
:1035C0004242201820404042221C000000000020FF
:1035D0003028242422227E20207800000000007E53
:1035E0000202021A26404042221C0000000000385D
:1035F0002402021A26424242241800000000007EE3
:103600002222101008080808080800000000003CEA
:103610004242422418244242423C0000000000186A
:103620002442424264584040241C00000000000034
:10363000000018180000000018180000000000002A
:10364000000000080000000000080804000000401E
:1036500020100804020408102040000000000000B0
:1036600000007F0000007F0000000000000000025A
:103670000408102040201008040200000000003C54
:103680004242464020101000181800000000001CA4
:10369000225A555555552D42221C000000000008A5
:1036A00008181414243C224242E700000000001FC6
:1036B0002222221E22424242221F00000000007CE1
:1036C0004242010101010142221C00000000001FD2
:1036D0002242424242424242221F00000000003F7A
:1036E0004212121E12120242423F00000000003F2E
:1036F0004212121E12120202020700000000003CD9
:103700002222010101712122221C0000000000E799
:10371000424242427E42424242E700000000003EF6
:103720000808080808080808083E00000000007C97
:1037300010101010101010101010110F0000007752
:1037400022120A0E0A12122222770000000000073D
:103750000202020202020202427F00000000007721
:10376000363636362A2A2A2A2A6B0000000000E361
:1037700046464A4A52525262624700000000001C0C
:103780002241414141414141221C00000000003FD3
:10379000424242423E020202020700000000001CB8
:1037A0002241414141414D53321C60000000003F25
:1037B0004242423E1212222242C700000000007C18
:1037C0004242020418204042423E00000000007FB6
:1037D0004908080808080808081C0000000000E75D
:1037E0004242424242424242423C0000000000E764
:1037F0004242222424141418080800000000006B20
:10380000494949495555362222220000000000E767
:10381000422424181818242442E7000000000077EE
:103820002222141408080808081C00000000007E6A
:103830002120101008040442423F000000780808CC
:1038400008080808080808080808780000000202AC
:10385000040408080810102020204040001E10100A
:10386000101010101010101010101E00003844001E
:103870000000000000000000000000000000000048
:103880000000000000000000000000FF000608002B
:103890000000000000000000000000000000000028
:1038A0000000003C4278444242FC0000000000035B
:1038B0000202021A26424242261A000000000000BC
:1038C000000000384402020244380000000000609A
:1038D000404040784442424264D80000000000006A
:1038E0000000003C427E0202423C0000000000F06A
:1038F0008808087E08080808083E0000000000004C
:103900000000007C22221C023C42423C00000003DA
:103910000202023A4642424242E700000000000C26
:103920000C00000E08080808083E000000000030E7
:1039300030000038202020202020221E000000031C
:1039400002020272120A1612227700000000000E14
:103950000808080808080808083E000000000000E1
:103960000000007F9292929292B700000000000047
:103970000000003B4642424242E7000000000000D7
:103980000000003C42424242423C00000000000075
:103990000000001B26424242221E020700000000D7
:1039A0000000007844424242447840E000000000B9
:1039B000000000774C040404041F00000000000015
:1039C0000000007C42023C40423E0000000000003B
:1039D0000008083E08080808083000000000000041
:1039E000000000634242424262DC0000000000002E
:1039F000000000E742242414080800000000000032
:103A0000000000EB4949555522220000000000004B
:103A10000000007624181818246E00000000000032
:103A2000000000E7422424141808080700000000E2
:103A30000000007E22100808447E000000C0202004
:103A400020202010202020202020C0001010101046
:103A50001010101010101010101010100006080890
:103A60000808081008080808080806000C32C200F8
:103A7000000000000000000000000000C9EE00008F
:103A800027FC140414A4811042084040104017FC85
:103A90002040E0E0215022482C4620400040DBDA64
:103AA00011041124112411241124FD2411241124A2
:103AB0001124112411241D24E124422402040404AD
:103AC000CAD00200010000007FFC010001000100DB
:103AD0003FF8210821082108210821282110010090
:103AE0000100C8AB0000000001800240043018084B
:103AF00060061FF90100010001003FF8010001000C
:103B000001007FFEB6AF0000000000203E20007CD8
:103B1000002200227F221022102212221222224290
:103B200023423D82009CB5E70000010001001FF028
:103B3000610C410441047FFC4104410441047FFCC9
:103B400001000102010201FCD7D3000000003FF890
:103B5000001000600080010000807FFE00400040F7
:103B600000200020002018400780BCBC102010203E
:103B7000102013FEFC201020102015FC1884308823
:103B8000D04810501020105051882606CAF5010068
:103B90000120011001107FFC038005400540092031
:103BA0001110210841048102010001000100D3D05D
:103BB00002000200FFFE040004000FF008101810BD
:103BC0002FF0481088100FF0081008100850082037
:103BD000CFDE00007BF84A08520853F8620852080A
:103BE0004BF84A444A486A30522042104288430601
:103BF0004200B9AB008004800480084008401020D7
:103C000020104208820604000440082010203FF0E3
:103C100010100000CBBE00003FF8000800087FE84D
:103C2000000800081F8810881088108810881F88D6
:103C3000108800280010BBB600800080FC8004FCC7
:103C4000050449082A401440104028A024A045102B
:103C50008110020804040802D3AD00002080133C48
:103C6000122402240224F2241224122412B413284F
:103C700012201020282047FE0000C4FA0900090085
:103C800011FC320454489950114812441444114014
:103C9000108002005104511290120FF0B4BF0000C6
:103CA0000020102013FE202026244A247A241224E7
:103CB000222423FC7C20002204227822003CC9AB71
:103CC0000000000004000FF0102020207FFC208462
:103CD0002084208420843FF82000200220021FFE40
:103CE000CCEE00000000204023FE204079FC22049E
:103CF00023FC220423FC220423FC3A0465FA0198E5
:103D00000204B3E40000010001007FFE0220041061
:103D1000040808043FFC04420440044004420842F2
:103D20001042607EBED800000000207E3E804880A9
:103D3000488048FE48827F8208820C8214FA1284EE
:103D40002280218040FED0CE000000007F84220827
:103D5000223022C0220222047FC8223022C2220244
:103D60002204220822304040BBAD000000007FFE4C
:103D700000000FF011101110111051125FF25112CA
:103D8000511251124FF240027FFCD4B200000000E9
:103D90007FFE47E24812481247E24FF2501250129B
:103DA0005112511242924472580A3FFCCDBC00009D
:103DB00000003FFE440247F24C22536240824362BD
:103DC0005E1A41824062430240C240223FFCC6ACC0
:103DD000000000402040204020403FFE2000200006
:103DE00020003FE020102010201020104010401034
:103DF000CFD4000000003FFC200420043FFC20043E
:103E000020041FF824441448144814480C5004405B
:103E10007FFECABE000000003FFC00000000000062
:103E20007FFE0080089008881088108420842082FB
:103E300040820780B2CB0000002008207FFE0020D7
:103E400000783F881108089009207FFE0180034018
:103E50000D30310C4002B5A5000000100810042000
:103E60003FF8210421043FFC210421043FF8010014
:103E70007FFE010001000100D6D00000010001001A
:103E800001003FFC21042104210421042104210418
:103E90003FFC0100010001000100D3A2000000006E
:103EA00008207FFE0820092001003FF82108210892
:103EB00021081FF4014002200C10700ECEC4000037
:103EC0000100010000803F7C08100810041004204D
:103ED000022002400180018002601C18E006D7DB4E
:103EE00000000000102011FE2202220249FC5800AE
:103EF000300013FE2528792401240D24722202A209
:103F0000BACF0000000001800240043018086006AB
:103F10001FF800001FF820042004200420042004BF
:103F20001FF8C1C10000010001007FFE00003FF842
:103F300020083FF83FF8400647C2482408200822DE
:103F40001022603EB6C80000000000803FFE441012
:103F50005FFC4410441043F040005FF844084230D6
:103F600041C04360BC1EB2E20000000067C21452B0
:103F700005520552C5522552055205521552175287
:103F8000228222424442483ECAD40000000020144B
:103F9000101417FE00120010601013F01090109013
:103FA0001090149214EA1F0A0006B3CC000000001F
:103FB00019FE7202120212027DFC18001BFE342050
:103FC000502053FE10201020102013FED0F20000CD
:103FD000000000803FFE400047FC4208413040C0E6
:103FE0005FFE404240424044404840404440B5F7B4
:103FF0000000000023FE122202FA0222E22212FE38
:104000001272128A128A128A16BA1A421202040E06
:10401000B9E2000001000104110809080910092093
:104020007FFE04400440044004400842084210421D
:10403000607CB0E60000000048FE490049004900ED
:104040007EFE418241447944452845284510452853
:1040500046440382C8A800001000100013FC7D0431
:1040600011041904188434885048505010201050FE
:10407000108813041402CBF9000000003F7C20409C
:1040800020403E40227E2244224422443E8420841A
:104090002084408441044204C6C100003FF8200847
:1040A00020083FF8241022202FF8222022203FFC55
:1040B00022204220442084200820C4BB04407FFCEE
:1040C00004401FF010101FF010101FF00400FFFE3E
:1040D00011103FF8D116115011200100D0FD2080A1
:1040E000108010FE0100FE0021FC20243C2424A0AE
:1040F00024A024BC24A024A04560553E8A00D7AA51
:10410000202020202020FDFC4020504093FEFC4039
:10411000108011FC1C04F08850501020101010105A
:10412000BFAA00007FFC08200820082008200820E3
:10413000FFFE082008200820082010201020202042
:104140004020D4B4000027FE1420144085FC450410
:1041500045FC150415FC2524E42024A829242A2242
:1041600030A00040D2BA0080204017FE11208120EC
:10417000423C4244166412942348E24822302220F2
:10418000225022880306BEA70FE0082008200FE077
:10419000082008200FE000007EFC428442847EFC60
:1041A000428442847EFC4284CDF800007FFC4004BF
:1041B0004004421452944A54442444244A544A54D5
:1041C00052946104400440144008D5BE10200820D9
:1041D00008207E20003E04204420442025FC2904A1
:1041E00029040F04F104410401FC0104B0B410409F
:1041F0001020102013FEFA02144410401BFE3088D9
:10420000D088110810D01020105050882304BCFC16
:10421000201020103B7C211441FE7A14A27C271030
:10422000F97C251025FE22102A10350028FE0000FA
:10423000D0A310401020102011FEFC001088310483
:104240003A02548850889050105010201050108816
:104250001306D7BC01404120212023FE0220162056
:104260001BFC1220222023FCE2202220222023FEFD
:1042700022000200B4A520202020782049FC9124AF
:104280007D24552455247DFC552454207C28542419
:1042900057FE45028C00C3FE1110111017FC1110BF
:1042A000FC0013F8120817F81A0833F8D04017FC6E
:1042B00010A0111052082406C9EE000000000000F2
:1042C0001000000800080C7FFC04401001C8A00288
:1042D000186042301832231812C30014030004037C
:1042E0000C047FF0080F80080B407813601833200F
:1042F00018631818831C1903081803000003000032
:104300000000DBDA00000000000004100C04180CB0
:1043100004108C04108C04108C04108C04D08C3F7E
:10432000108C04108C04108C04108C04108C04105D
:104330008C04108C05F08C0E208C78208C20408C06
:1043400000808C01000C02000C000000CAD00000AC
:104350000000000000300000180000180800001CD9
:104360001FFFE000180000182007FFF004182004C9
:1043700018200418200418200418200418200418F9
:10438000200418200418200418E004184000180025
:10439000001800000000D6D000000000000000005F
:1043A00000000000001800001800001800001800AD
:1043B0003FFFFE3018063018063018063018063059
:1043C00018063FFFFE3018060018000018000018FD
:1043D00000001800001800000000000000000000AD
:1043E000CEC4000000000000000000003800001CE7
:1043F00000000600FFFFFF060030060030030060EB
:104400000300600180C000C18000E30000360000AE
:104410001C0000770003C1E01E003C6000070000A4
:1044200000000000000000000000B2E200000000F8
:10443000000000000000000040000321FF3339832A
:1044400033118333019B33C19B33719B33199B33EE
:10445000019B33019B33119B3319B333303033301D
:104460006C0330C6036383032E01BE00000000000E
:1044700000000000CAD4000000000000000000009E
:1044800000004000D83000CE1800C21C00C001FF60
:10449000FF0000C0F800C01800C019FFC018184085
:1044A0001818601918601B18611E18311C1FB139CB
:1044B000F01910000F000000000000000000D7D627
:1044C0000000000000060000000300000000C00023
:1044D0000001C0C0000107C00001FF00021FFE0074
:1044E00007F01C0007C070000F00E0000E03F00092
:1044F0001C0FF0003C0F70003C00E0001800C000F2
:104500000000C0000000C0000000600000002000AB
:10451000000037000001FF00007FF80007F83000BE
:104520001F8030000080300000C03000006060005C
:104530000018E000000FC0000006000000000000AE
:10454000CCE50000000000000000000000C00000FA
:1045500000E0002001B800703FF80061FFC000C318
:10456000030001C60600038C060003080C000608C1
:104570000C000E18183F1E101BF31F903F07008001
:104580003C1C0190707C019060FE01A0C3F801A06A
:104590000FD803A00818036000180340001803C0D8
:1045A0000018038000180300001800000018000025
:1045B000001000000030000000300000000000008B
:1045C0000000B2E200000000000000000000000057
:1045D00000000000020C1008071FF80403BFF002DF
:1045E00001BC300303EC3003015C600300D86003BE
:1045F00000D860038098620361B8430771B1430635
:10460000313243063376C3063A64C7063EECC00631
:104610003E78C0063C3040067C70000678E06006BC
:104620007BFFF006F7C00006E4000006400000062D
:10463000000000060000007C00008FF000007C00FD
:1046400000000000CAD400000000000000000000CC
:10465000000000003F0000007F800000018000009B
:1046600000C0000000C0000000CE038000CFFFC0EB
:1046700000DD41800FFE0007FFFC000C00F0001879
:104680000FC03E19FF40F311BC6083307FE003B1DF
:10469000FE200333802003700030036000100360AD
:1046A000001807C0000C07C00004078000020100CA
:1046B00000030000000100000000000000000000F6
:1046C0000000000000000000FFFFFFFFFFFFFFFFF2
:1046D000FFFFFFFFFFFFFFFFFFFFFFFFFFFFFFFFEA
:1046E000FFFFFFFFFFFFBEF7FFFFDEFF38C6928C24
:1046F0008E6B6E6B107C96AD3CE7FFFFFFFFFFFFFC
:10470000FFFFFFFFFFFFFFFFFFFFFFFFFFFFFFFFB9
:10471000FFFFFFFFFFFFFFFFFFFFFFFFFFFFFFFFA9
:10472000FFFFFFFFFFFFFFFFFFFFFFFFFFFFFFFF99
:10473000FFFFFFFFFFFF5DEF159D4F636C420A32E5
:104740008829461925194521E8318E6B38C6FFFFA7
:10475000FFFFFFFFFFFFFFFFFFFFFFFFFFFFFFFF69
:10476000FFFFFFFFFFFFFFFFFFFFFFFFFFFFFFFF59
:10477000FFFFFFFFFFFFFFFFFFFFFFFFFFFFFFFF49
:10478000FFFFFFFF36A51053104B51530F4B6C3AF0
:10479000E93167212519E410A30862008308CB5290
:1047A0009AD6FFFFFFFFFFFFFFFFFFFFFFFFFFFFA7
:1047B000FFFFFFFFFFFFFFFFFFFFFFFFFFFFFFFF09
:1047C000FFFFFFFFFFFFFFFFFFFFFFFFFFFFFFFFF9
:1047D0003CE77063B363B87CF56311434D32EA295B
:1047E000882126190519051904110411E410830004
:1047F000A308728CFFFFFFFFFFFFFFFFFFFFFFFF1C
:10480000FFFFFFFFFFFFFFFFFFFFFFFFFFFFFFFFB8
:10481000FFFFFFFFFFFFFFFFFFFFFFFFFFFFDBDEED
:104820004B3AF042356C544BB1322E2AEB21A92180
:104830006719051904110411041104110411051953
:10484000E4104200AF73FFFFFFFFFFFFFFFFFFFF1A
:10485000FFFFFFFFFFFFFFFFFFFFFFFFFFFFFFFF68
:10486000FFFFFFFFFFFFFFFFFFFFFFFF5DEF0932CD
:104870004C32104B8F324F2A2E2ACC19891989219C
:104880004719051904110411C410C41004110411AE
:104890000411E41042003184FFFFFFFFFFFFFFFF20
:1048A000FFFFFFFFFFFFFFFFFFFFFFFFFFFFFFFF18
:1048B000FFFFFFFFFFFFFFFFFFFFFFFFEC52471966
:1048C0004C320B2AEC21EC210C22915BEE4A0611B2
:1048D00026190419E410E410A7296621A308051974
:1048E00004110411E4108200F7BDFFFFFFFFFFFF7A
:1048F000FFFFFFFFFFFFFFFFFFFFFFFFFFFFFFFFC8
:10490000FFFFFFFFFFFFFFFFFFFF35A583088821A3
:1049100088218921AA218A216B42718CFFFF728C28
:1049200083080411C4082942FBDE5DEFEC5A8308BA
:104930000411041104118308E831DFFFFFFFFFFFBA
:10494000FFFFFFFFFFFFFFFFFFFFFFFFFFFFFFFF77
:10495000FFFFFFFFFFFFFFFFBEF7C731C4102519A0
:10496000261947194719A8298A52284A55ADFFFF29
:10497000E831A30805194D6B4D6BFFFF7DEF452115
:10498000C410041104110411620076ADFFFFFFFF93
:10499000FFFFFFFFFFFFFFFFFFFFFFFFFFFFFFFF27
:1049A000FFFFFFFFFFFFFFFF96B562000411041930
:1049B00005110519C4088B4AB6B55DEFF7BDFFFFB9
:1049C0008E6B62002942AA5A0842FFFFFFFFCC52B9
:1049D0008308041104110411A308AD52FFFFFFFF67
:1049E000FFFFFFFFFFFFFFFFFFFFFFFFFFFF1CE7D2
:1049F000FFFFFFFFFFFFFFFF4E6362000411041182
:104A00000411E41062008E63FFFFFFFFFFFFFFFF52
:104A1000CF730100F39C2C6396B5FFFFFFFF2D5B66
:104A20008300041104110411E41067213DEFFFFF1E
:104A3000FFFFFFFFFFFFFFFFF8BDB7B59EEFCB52B3
:104A4000B394FFFFFFFFDFFFE831A3080411041157
:104A500004110411A3084942FFF7FFF7FFFFFFFF0E
:104A60006A4A01007284FFFFFFFFFFF7DFEF093A98
:104A7000A3080411041104110411051118BEFFFF4D
:104A8000FFFFFFFFFFFFFFFFF07B6200E831C73150
:104A9000410035A5FFFF5DEF4621C410041104114C
:104AA00004110411E410A308769DFFF7FFFFB7ADD2
:104AB000A308A308C7319EE7FFF7FFF776A5A30871
:104AC000E4100411041104110511051135A5FFFFAF
:104AD000FFFFFFFFFFFFFFFFDBDEA7298300C410FE
:104AE000C410C4101CE79EEF0511E410041104115A
:104AF000041104110419C408E510D16BD16BC50869
:104B00006400A50843002B32779DB3842519C41097
:104B1000041104110411041125192609359DFFFF04
:104B2000FFFFFFFFFFFFFFFFFFFFAF7362000419EE
:104B3000051982000D5B8E9B621005110411041192
:104B40000419E41085000511C439815A407B229C68
:104B500043AC03A4839B82728249C218A400C5009F
:104B6000E41004190411051947196711EC5ABEFF26
:104B7000FFFFFFFFFFFFFFFFDFFFDBDEC410E410DE
:104B800004110511A41801C08388E4000519041953
:104B9000C5084421438323D542FEE4FE27FF07FFD7
:104BA000A4FE64FE03FEA3FDE2FC42EC83B3246298
:104BB000E510C40804192619A81987210090D3BC50
:104BC000FFFFFFFFFFFFFFFFDFFFFFFF107C420043
:104BD00005190511832801D044F8A348E400C5084D
:104BE000445A02EDE2FD02FE66FE74FFB8FF73FF59
:104BF000E7F6A6F645F6A4F5C3FC62FCC2FCC2FCCF
:104C0000E3CBC449061188198701A49001F8EC9AF6
:104C1000FFFFFFFFFFFFFFFFFFFFFFFFBEF7E831D2
:104C200083000509824001C023F885F0A348A40051
:104C3000445A02FD23CCC2DC04FE28FE48F646F6A8
:104C400024F6E4F564FDE3FC62FCC2FC02E402DC51
:104C5000E2FCA47A48016701C47824F802F884B021
:104C60007DE7FFFFFFFFFFFFFFFFFFFFFFFFDBDE33
:104C70002519A300C43802E022D844F8A6F8A47885
:104C80006300432183728339829B21F561FD22FDFC
:104C9000E2FCA2FC42FC42FC42FC22AB8341C392F8
:104CA000045226012519A49844F823F802F8A4D048
:104CB0009EEFFFFFFFFFFFFFFFFFFFFFFFFFFFFF75
:104CC0009AD68729A50043B822F823E065F8E8F8CA
:104CD00007C983484200A30084006329A27A62B313
:104CE000A2CB62D302BB828A8339A400E500E5002F
:104CF000E508C46064D844F824F823F802F88388EF
:104D0000DBC6FFFFFFFFFFFFFFFFFFFFFFFFFFFF10
:104D1000FFFF3DE7505B083123E843F844F065F8B6
:104D200009F9ABF989D10689A3484218020042006B
:104D300061008200620062008300A320C450A58845
:104D400085D865F844F844F823F823F803D0821096
:104D5000C7295DEFFFFFFFFFFFFFFFFFFFFFFFFF23
:104D6000FFFFFFFFFFFF6C32A53802D823F865F87C
:104D700066F8A7F84AF90CFA4DFA4CEA0BD2A9B931
:104D800068B147A927B107B907D1E7E8C7F8A7F87D
:104D900065F865F844F823F803F802D0A32805095C
:104DA000C408EC5AFFFFFFFFFFFFFFFFFFFFFFFFFD
:104DB000FFFFFFFFFBDE0519C400A741E6C003F8B3
:104DC00086F8A7F887F886F8C7F829F98AF9ABF9C1
:104DD000ABF98BF96AF929F908F9C7F8A6F886F84A
:104DE00065F864F823F802F006B12529E400E41020
:104DF00025192519149DFFFFFFFFFFFFFFFFFFFF90
:104E0000FFFFFFFF96AD620082083595BACE8BA2F8
:104E100044D025F887F8A7F8C7F8A7F887F886F8E8
:104E200086F886F887F8A7F8A7F8A6F885F865F851
:104E300064F824F064B80D93BBB6CF638308041103
:104E4000E4106621493A5DEFFFFFFFFFFFFFFFFF20
:104E5000FFFFFFFFD3944200E410BBCEFFFFBEE78D
:104E600076B5CCAA07C145E045F846F866F886F85D
:104E700086F886F886F865F845F865F865E844D060
:104E800043A8018882903CD7FFEF55958308041111
:104E9000041105194619B394FFFFFFFFFFFFFFFF41
:104EA000FFFFFFFFB394410086215DDFFFFFFFFF9F
:104EB000FFFFDFE77AC6D3B44EB32AC268D1E6E07B
:104EC000A6E8A5E8A5E8E6D888C906A922A802A808
:104ED00000A000C800D8F7E5FFE7F8ADC410E41063
:104EE0000411E41005118B4AFFFFFFFFFFFFFFFFD6
:104EF000FFFFFFFF55A54100A7295DDFFFF7FFFF7B
:104F0000FFFFFFFFFFFFFFFFFFEF7DDFDBCE59CE8F
:104F1000F8CDD7CDF7C579CEFBBEABA203F045F8EF
:104F200042D043E800F072D4FFDF39AEE410E41061
:104F30000411E41005118729FFFFFFFFFFFFFFFFAA
:104F4000FFFFFFFF59CE830846211CD7FFF7FFFF65
:104F5000FFFFFFFFFFFFFFFFFFFFFFFFFFFFFFFF61
:104F6000FFFFFFFFFFFFFFFFFFEF8BBA04F845F8DD
:104F700062E044F000F88EDBFFDFF8A5C410E41017
:104F8000E4100411E4102519FFFFFFFFFFFFFFFFEE
:104F9000FFFFFFFFBEF78729830839B6FFF7DFF76A
:104FA000FFFFFFFFFFFFFFFFFFFFFFFFFFFFFFFF11
:104FB000FFFFFFFFFFFFFFFFBEE74ABA03F845F818
:104FC00064F844F800F86EE3FFD7F48C830804110A
:104FD000E410E410E4100519FFFFFFFFFFFFFFFFDF
:104FE000FFFFFFFFFFFFEF7300007284FFEFBEEFD4
:104FF000DFFFFFFFFFFFFFFFFFFFFFFFFFFFFFFFE1
:10500000FFFFFFFFFFFFFFFFDFE78BBA03F845F865
:1050100045F823F800F8D3D4FFD74E5B2100293A96
:1050200055A58308C4102519FFFFFFFFFFFFFFFFF1
:10503000FFFFFFFFFFFFFBDEA308E8319EDF9EE7D7
:10504000BFEFFFFFFFFFFFFFFFFFFFFFFFFFFFFFC0
:10505000FFFFFFFFFFFFFFFFFFF751BC02E003F878
:1050600003F043E0ECC27ECFFCBE46212100D39486
:10507000FFFF518400008729FFFFFFFFFFFFFFFFB5
:10508000FFFFFFFFFFFFFFFF51840000F48CFFEFE5
:105090009EE7BFEFDFFFFFFFFFFFFFFFFFFFFFFF09
:1050A000FFFFFFFFFFFFFFFFFFFF3DDF55BD52BCCE
:1050B00072BCB7B55DC7FFDFF06B0000093ABFF700
:1050C000FFFFFFFF149D55A5FFFFFFFFFFFFFFFF41
:1050D000FFFFFFFFFFFFFFFFFFFFAC4AA408BBBEBF
:1050E000DFE77EE7BEEFDFF7DFFFFFFFFFFFFFFF3A
:1050F000FFFFFFFFFFFFFFFFDFFFDFF7FFEFDFDF58
:10510000BFD79ED7DFDFD8A583082611DBD6FFFFE8
:10511000FFFFFFFFFFFFFFFFFFFFFFFFFFFFFFFF9F
:10512000FFFFFFFFFFFFFFFF79EE8BDC2131A9219D
:105130003DCFBFDF7EDF9EE7BEEFBFEFDFF7DFF7DC
:10514000DFF7DFF7DFF7BFEFBEEF9EE77EDF5ED76B
:105150005ED7DFDF9AB626194208EDA3BFFFFFFF37
:10516000FFFFFFFFFFFFFFFFFFFFFFFFFFFFFFFF4F
:10517000FFFFFFFFFFFF74DDC0DB00FE42EE0242D7
:1051800089217BB6DFDF7ED77EDF7EDF9EE79EE76D
:105190009EE79EE79EE77EDF7EDF5DD75DD79EDFE1
:1051A000FFE7F8A50711E31802C560FDE6D3DBEEC3
:1051B000FFFFFFFFFFFFFFFFFFFFFFFFFFFFFFFFFF
:1051C000FFFFFFFF9EF784BAC1FC42FE82FEA2FEF3
:1051D0008183452174745EC7DFDF7ED75ED75DD7DC
:1051E0005ED75ED75DD75DD75ED79EDFFFE73DC751
:1051F000F1638408425226E629FF86FEE0F36AC383
:10520000FFFFFFFFFFFFFFFFFFFFFFFFFFFFFFFFAE
:10521000FFFFFFFF18DEC1D2A2FD22FE42FE42FECA
:1052200062FEE2D4416A494253743BA63EC7BFD7EF
:10523000BFD7BFD7BFDFBFD73EC71AA6F263A72924
:10524000824122B462FE83FEAAFE0FFF67FD63BAAD
:105250003CEFFFFFFFFFFFFFFFFFFFFFFFFFFFFF31
:10526000FFFFFFFF9AE680D221FDC2FDE2F5C2F505
:1052700082F582FD62FD61DC219B846AE96A2C6310
:10528000AF6311746E632C63895A0452817AC2CB66
:10529000E2FC62FD82FDC2FDC2FDE4FD24FD62CAA6
:1052A0001CE7FFFFFFFFFFFFFFFFFFFFFFFFFFFF09
:1052B000FFFFFFFFFFFFB1CC81D2C0F3C1FC02FDB5
:1052C00002FDE2FCC2FCC2FC81FC80FBC0C9A481DF
:1052D00035AD59CE719C218100DAA1FB82FCA2FC84
:1052E00082FCA2FC02FD22FDE2FC00FC60DA90CC14
:1052F000FFFFFFFFFFFFFFFFFFFFFFFFFFFFFFFFBE
:10530000FFFFFFFFFFFFFFFF59DE0DC406CBE4D216
:1053100003DB03DBE3DAC3D2A4C209B3D2BC9EF73A
:10532000FFFFFFFFFFFFFBE60EB4A6BA83D2E3E266
:1053300002EB22EB22E303DBE4D26AC3B6D5FFFF24
:10534000FFFFFFFFFFFFFFFF8453000878530008B3
:105350006853000858530008526F746174696F6E87
:105360003A32373000000000526F746174696F6E1A
:105370003A31383000000000526F746174696F6E0A
:105380003A393000526F746174696F6E3A300000C0
:10539000B0530008000000207C0000007C2C0008B6
:1053A0002C5400087C000020140400008C2C000801
:1053B00000000000000000000000000000000000ED
:1053C00000000000000000000000000000000000DD
:1053D00000000000000000000000000000000000CD
:1053E00000000000000000000000000000A24A04CD
:1053F0000000000000000000010203040607080985
:105400007F00000000000000000001020304010210
:10541000030406070809020406080000FFFF000055
:0C54200000F8E0071F00E0FF1FF800008C
:0400000508000145A9
:00000001FF
